{
  "_format": "hh-sol-artifact-1",
  "contractName": "ExampleNFT",
  "sourceName": "contracts/ExampleNFT.sol",
  "abi": [
    {
      "inputs": [],
      "stateMutability": "nonpayable",
      "type": "constructor"
    },
    {
      "anonymous": false,
      "inputs": [
        {
          "indexed": true,
          "internalType": "address",
          "name": "owner",
          "type": "address"
        },
        {
          "indexed": true,
          "internalType": "address",
          "name": "approved",
          "type": "address"
        },
        {
          "indexed": true,
          "internalType": "uint256",
          "name": "tokenId",
          "type": "uint256"
        }
      ],
      "name": "Approval",
      "type": "event"
    },
    {
      "anonymous": false,
      "inputs": [
        {
          "indexed": true,
          "internalType": "address",
          "name": "owner",
          "type": "address"
        },
        {
          "indexed": true,
          "internalType": "address",
          "name": "operator",
          "type": "address"
        },
        {
          "indexed": false,
          "internalType": "bool",
          "name": "approved",
          "type": "bool"
        }
      ],
      "name": "ApprovalForAll",
      "type": "event"
    },
    {
      "anonymous": false,
      "inputs": [
        {
          "indexed": true,
          "internalType": "address",
          "name": "previousOwner",
          "type": "address"
        },
        {
          "indexed": true,
          "internalType": "address",
          "name": "newOwner",
          "type": "address"
        }
      ],
      "name": "OwnershipTransferred",
      "type": "event"
    },
    {
      "anonymous": false,
      "inputs": [
        {
          "indexed": true,
          "internalType": "address",
          "name": "from",
          "type": "address"
        },
        {
          "indexed": true,
          "internalType": "address",
          "name": "to",
          "type": "address"
        },
        {
          "indexed": true,
          "internalType": "uint256",
          "name": "tokenId",
          "type": "uint256"
        }
      ],
      "name": "Transfer",
      "type": "event"
    },
    {
      "stateMutability": "payable",
      "type": "fallback"
    },
    {
      "inputs": [],
      "name": "_price",
      "outputs": [
        {
          "internalType": "uint256",
          "name": "",
          "type": "uint256"
        }
      ],
      "stateMutability": "view",
      "type": "function"
    },
    {
      "inputs": [
        {
          "internalType": "address",
          "name": "to",
          "type": "address"
        },
        {
          "internalType": "uint256",
          "name": "tokenId",
          "type": "uint256"
        }
      ],
      "name": "approve",
      "outputs": [],
      "stateMutability": "nonpayable",
      "type": "function"
    },
    {
      "inputs": [
        {
          "internalType": "address",
          "name": "owner",
          "type": "address"
        }
      ],
      "name": "balanceOf",
      "outputs": [
        {
          "internalType": "uint256",
          "name": "",
          "type": "uint256"
        }
      ],
      "stateMutability": "view",
      "type": "function"
    },
    {
      "inputs": [
        {
          "internalType": "uint256",
          "name": "tokenId",
          "type": "uint256"
        }
      ],
      "name": "getApproved",
      "outputs": [
        {
          "internalType": "address",
          "name": "",
          "type": "address"
        }
      ],
      "stateMutability": "view",
      "type": "function"
    },
    {
      "inputs": [
        {
          "internalType": "address",
          "name": "owner",
          "type": "address"
        },
        {
          "internalType": "address",
          "name": "operator",
          "type": "address"
        }
      ],
      "name": "isApprovedForAll",
      "outputs": [
        {
          "internalType": "bool",
          "name": "",
          "type": "bool"
        }
      ],
      "stateMutability": "view",
      "type": "function"
    },
    {
      "inputs": [
        {
          "internalType": "address",
          "name": "to",
          "type": "address"
        },
        {
          "internalType": "string",
          "name": "tokenURI",
          "type": "string"
        }
      ],
      "name": "mintNFT",
      "outputs": [
        {
          "internalType": "uint256",
          "name": "tokenId",
          "type": "uint256"
        }
      ],
      "stateMutability": "payable",
      "type": "function"
    },
    {
      "inputs": [],
      "name": "name",
      "outputs": [
        {
          "internalType": "string",
          "name": "",
          "type": "string"
        }
      ],
      "stateMutability": "view",
      "type": "function"
    },
    {
      "inputs": [],
      "name": "owner",
      "outputs": [
        {
          "internalType": "address",
          "name": "",
          "type": "address"
        }
      ],
      "stateMutability": "view",
      "type": "function"
    },
    {
      "inputs": [
        {
          "internalType": "uint256",
          "name": "tokenId",
          "type": "uint256"
        }
      ],
      "name": "ownerOf",
      "outputs": [
        {
          "internalType": "address",
          "name": "",
          "type": "address"
        }
      ],
      "stateMutability": "view",
      "type": "function"
    },
    {
      "inputs": [],
      "name": "renounceOwnership",
      "outputs": [],
      "stateMutability": "nonpayable",
      "type": "function"
    },
    {
      "inputs": [
        {
          "internalType": "address",
          "name": "from",
          "type": "address"
        },
        {
          "internalType": "address",
          "name": "to",
          "type": "address"
        },
        {
          "internalType": "uint256",
          "name": "tokenId",
          "type": "uint256"
        }
      ],
      "name": "safeTransferFrom",
      "outputs": [],
      "stateMutability": "nonpayable",
      "type": "function"
    },
    {
      "inputs": [
        {
          "internalType": "address",
          "name": "from",
          "type": "address"
        },
        {
          "internalType": "address",
          "name": "to",
          "type": "address"
        },
        {
          "internalType": "uint256",
          "name": "tokenId",
          "type": "uint256"
        },
        {
          "internalType": "bytes",
          "name": "data",
          "type": "bytes"
        }
      ],
      "name": "safeTransferFrom",
      "outputs": [],
      "stateMutability": "nonpayable",
      "type": "function"
    },
    {
      "inputs": [
        {
          "internalType": "address",
          "name": "operator",
          "type": "address"
        },
        {
          "internalType": "bool",
          "name": "approved",
          "type": "bool"
        }
      ],
      "name": "setApprovalForAll",
      "outputs": [],
      "stateMutability": "nonpayable",
      "type": "function"
    },
    {
      "inputs": [
        {
          "internalType": "string",
          "name": "baseURI_",
          "type": "string"
        }
      ],
      "name": "setBaseURI",
      "outputs": [],
      "stateMutability": "nonpayable",
      "type": "function"
    },
    {
      "inputs": [
        {
          "internalType": "bytes4",
          "name": "interfaceId",
          "type": "bytes4"
        }
      ],
      "name": "supportsInterface",
      "outputs": [
        {
          "internalType": "bool",
          "name": "",
          "type": "bool"
        }
      ],
      "stateMutability": "view",
      "type": "function"
    },
    {
      "inputs": [],
      "name": "symbol",
      "outputs": [
        {
          "internalType": "string",
          "name": "",
          "type": "string"
        }
      ],
      "stateMutability": "view",
      "type": "function"
    },
    {
      "inputs": [
        {
          "internalType": "uint256",
          "name": "index",
          "type": "uint256"
        }
      ],
      "name": "tokenByIndex",
      "outputs": [
        {
          "internalType": "uint256",
          "name": "",
          "type": "uint256"
        }
      ],
      "stateMutability": "view",
      "type": "function"
    },
    {
      "inputs": [
        {
          "internalType": "address",
          "name": "owner",
          "type": "address"
        },
        {
          "internalType": "uint256",
          "name": "index",
          "type": "uint256"
        }
      ],
      "name": "tokenOfOwnerByIndex",
      "outputs": [
        {
          "internalType": "uint256",
          "name": "",
          "type": "uint256"
        }
      ],
      "stateMutability": "view",
      "type": "function"
    },
    {
      "inputs": [
        {
          "internalType": "uint256",
          "name": "tokenId",
          "type": "uint256"
        }
      ],
      "name": "tokenURI",
      "outputs": [
        {
          "internalType": "string",
          "name": "",
          "type": "string"
        }
      ],
      "stateMutability": "view",
      "type": "function"
    },
    {
      "inputs": [],
      "name": "totalSupply",
      "outputs": [
        {
          "internalType": "uint256",
          "name": "",
          "type": "uint256"
        }
      ],
      "stateMutability": "view",
      "type": "function"
    },
    {
      "inputs": [
        {
          "internalType": "address",
          "name": "from",
          "type": "address"
        },
        {
          "internalType": "address",
          "name": "to",
          "type": "address"
        },
        {
          "internalType": "uint256",
          "name": "tokenId",
          "type": "uint256"
        }
      ],
      "name": "transferFrom",
      "outputs": [],
      "stateMutability": "nonpayable",
      "type": "function"
    },
    {
      "inputs": [
        {
          "internalType": "address",
          "name": "newOwner",
          "type": "address"
        }
      ],
      "name": "transferOwnership",
      "outputs": [],
      "stateMutability": "nonpayable",
      "type": "function"
    },
    {
      "inputs": [],
      "name": "withdraw",
      "outputs": [],
      "stateMutability": "payable",
      "type": "function"
    },
    {
      "stateMutability": "payable",
      "type": "receive"
    }
  ],
  "bytecode": "0x608060405266038d7ea4c68000600b553480156200001c57600080fd5b50604080518082018252600381526213919560ea1b6020808301918252835180850190945260048452631153919560e21b9084015281519192916200006491600091620000f3565b5080516200007a906001906020840190620000f3565b50505062000097620000916200009d60201b60201c565b620000a1565b620001d6565b3390565b600a80546001600160a01b038381166001600160a01b0319831681179093556040519116919082907f8be0079c531659141344cd1fd0a4f28419497f9722a3daafe3b4186f6b6457e090600090a35050565b828054620001019062000199565b90600052602060002090601f01602090048101928262000125576000855562000170565b82601f106200014057805160ff191683800117855562000170565b8280016001018555821562000170579182015b828111156200017057825182559160200191906001019062000153565b506200017e92915062000182565b5090565b5b808211156200017e576000815560010162000183565b600181811c90821680620001ae57607f821691505b60208210811415620001d057634e487b7160e01b600052602260045260246000fd5b50919050565b611ec180620001e66000396000f3fe6080604052600436106101385760003560e01c806355f804b3116100b0578063a22cb4651161006c578063a22cb46514610355578063b88d4fde14610375578063c87b56dd14610395578063e985e9c5146103b5578063eacabe14146103fe578063f2fde38b1461041157005b806355f804b3146102ad5780636352211e146102cd57806370a08231146102ed578063715018a61461030d5780638da5cb5b1461032257806395d89b411461034057005b8063235b6ea1116100ff578063235b6ea11461020f57806323b872dd146102255780632f745c59146102455780633ccfd60b1461026557806342842e0e1461026d5780634f6ccce71461028d57005b806301ffc9a71461014157806306fdde0314610176578063081812fc14610198578063095ea7b3146101d057806318160ddd146101f057005b3661013f57005b005b34801561014d57600080fd5b5061016161015c36600461193a565b610431565b60405190151581526020015b60405180910390f35b34801561018257600080fd5b5061018b61045c565b60405161016d91906119af565b3480156101a457600080fd5b506101b86101b33660046119c2565b6104ee565b6040516001600160a01b03909116815260200161016d565b3480156101dc57600080fd5b5061013f6101eb3660046119f7565b610515565b3480156101fc57600080fd5b506008545b60405190815260200161016d565b34801561021b57600080fd5b50610201600b5481565b34801561023157600080fd5b5061013f610240366004611a21565b610630565b34801561025157600080fd5b506102016102603660046119f7565b610661565b61013f6106f7565b34801561027957600080fd5b5061013f610288366004611a21565b6107b0565b34801561029957600080fd5b506102016102a83660046119c2565b6107cb565b3480156102b957600080fd5b5061013f6102c8366004611b09565b61085e565b3480156102d957600080fd5b506101b86102e83660046119c2565b61087d565b3480156102f957600080fd5b50610201610308366004611b3e565b6108dd565b34801561031957600080fd5b5061013f610963565b34801561032e57600080fd5b50600a546001600160a01b03166101b8565b34801561034c57600080fd5b5061018b610977565b34801561036157600080fd5b5061013f610370366004611b59565b610986565b34801561038157600080fd5b5061013f610390366004611b95565b610991565b3480156103a157600080fd5b5061018b6103b03660046119c2565b6109c9565b3480156103c157600080fd5b506101616103d0366004611c11565b6001600160a01b03918216600090815260056020908152604080832093909416825291909152205460ff1690565b61020161040c366004611c44565b610b41565b34801561041d57600080fd5b5061013f61042c366004611b3e565b610b79565b60006001600160e01b0319821663780e9d6360e01b1480610456575061045682610bf2565b92915050565b60606000805461046b90611c92565b80601f016020809104026020016040519081016040528092919081815260200182805461049790611c92565b80156104e45780601f106104b9576101008083540402835291602001916104e4565b820191906000526020600020905b8154815290600101906020018083116104c757829003601f168201915b5050505050905090565b60006104f982610c42565b506000908152600460205260409020546001600160a01b031690565b60006105208261087d565b9050806001600160a01b0316836001600160a01b031614156105935760405162461bcd60e51b815260206004820152602160248201527f4552433732313a20617070726f76616c20746f2063757272656e74206f776e656044820152603960f91b60648201526084015b60405180910390fd5b336001600160a01b03821614806105af57506105af81336103d0565b6106215760405162461bcd60e51b815260206004820152603d60248201527f4552433732313a20617070726f76652063616c6c6572206973206e6f7420746f60448201527f6b656e206f776e6572206f7220617070726f76656420666f7220616c6c000000606482015260840161058a565b61062b8383610ca1565b505050565b61063a3382610d0f565b6106565760405162461bcd60e51b815260040161058a90611ccd565b61062b838383610d8d565b600061066c836108dd565b82106106ce5760405162461bcd60e51b815260206004820152602b60248201527f455243373231456e756d657261626c653a206f776e657220696e646578206f7560448201526a74206f6620626f756e647360a81b606482015260840161058a565b506001600160a01b03919091166000908152600660209081526040808320938352929052205490565b6106ff610efe565b6000610713600a546001600160a01b031690565b60405190915047906000906001600160a01b0384169083908381818185875af1925050503d8060008114610763576040519150601f19603f3d011682016040523d82523d6000602084013e610768565b606091505b505090508061062b5760405162461bcd60e51b81526020600482015260146024820152732330b4b632b2103a379039b2b7321022ba3432b960611b604482015260640161058a565b61062b83838360405180602001604052806000815250610991565b60006107d660085490565b82106108395760405162461bcd60e51b815260206004820152602c60248201527f455243373231456e756d657261626c653a20676c6f62616c20696e646578206f60448201526b7574206f6620626f756e647360a01b606482015260840161058a565b6008828154811061084c5761084c611d1a565b90600052602060002001549050919050565b610866610efe565b805161087990600d90602084019061188b565b5050565b6000818152600260205260408120546001600160a01b0316806104565760405162461bcd60e51b8152602060048201526018602482015277115490cdcc8c4e881a5b9d985b1a59081d1bdad95b88125160421b604482015260640161058a565b60006001600160a01b0382166109475760405162461bcd60e51b815260206004820152602960248201527f4552433732313a2061646472657373207a65726f206973206e6f7420612076616044820152683634b21037bbb732b960b91b606482015260840161058a565b506001600160a01b031660009081526003602052604090205490565b61096b610efe565b6109756000610f58565b565b60606001805461046b90611c92565b610879338383610faa565b61099b3383610d0f565b6109b75760405162461bcd60e51b815260040161058a90611ccd565b6109c384848484611079565b50505050565b6000818152600260205260409020546060906001600160a01b0316610a485760405162461bcd60e51b815260206004820152602f60248201527f4552433732314d657461646174613a2055524920717565727920666f72206e6f60448201526e3732bc34b9ba32b73a103a37b5b2b760891b606482015260840161058a565b6000828152600c602052604081208054610a6190611c92565b80601f0160208091040260200160405190810160405280929190818152602001828054610a8d90611c92565b8015610ada5780601f10610aaf57610100808354040283529160200191610ada565b820191906000526020600020905b815481529060010190602001808311610abd57829003601f168201915b505050505090506000610aeb6110ac565b9050805160001415610afe575092915050565b815115610b30578082604051602001610b18929190611d30565b60405160208183030381529060405292505050919050565b610b39846110bb565b949350505050565b6000610b51600e80546001019055565b6000610b5c600e5490565b9050610b688482611121565b610b7281846112ba565b9392505050565b610b81610efe565b6001600160a01b038116610be65760405162461bcd60e51b815260206004820152602660248201527f4f776e61626c653a206e6577206f776e657220697320746865207a65726f206160448201526564647265737360d01b606482015260840161058a565b610bef81610f58565b50565b60006001600160e01b031982166380ac58cd60e01b1480610c2357506001600160e01b03198216635b5e139f60e01b145b8061045657506301ffc9a760e01b6001600160e01b0319831614610456565b6000818152600260205260409020546001600160a01b0316610bef5760405162461bcd60e51b8152602060048201526018602482015277115490cdcc8c4e881a5b9d985b1a59081d1bdad95b88125160421b604482015260640161058a565b600081815260046020526040902080546001600160a01b0319166001600160a01b0384169081179091558190610cd68261087d565b6001600160a01b03167f8c5be1e5ebec7d5bd14f71427d1e84f3dd0314c0f7b2291e5b200ac8c7c3b92560405160405180910390a45050565b600080610d1b8361087d565b9050806001600160a01b0316846001600160a01b03161480610d6257506001600160a01b0380821660009081526005602090815260408083209388168352929052205460ff165b80610b395750836001600160a01b0316610d7b846104ee565b6001600160a01b031614949350505050565b826001600160a01b0316610da08261087d565b6001600160a01b031614610dc65760405162461bcd60e51b815260040161058a90611d5f565b6001600160a01b038216610e285760405162461bcd60e51b8152602060048201526024808201527f4552433732313a207472616e7366657220746f20746865207a65726f206164646044820152637265737360e01b606482015260840161058a565b610e358383836001611354565b826001600160a01b0316610e488261087d565b6001600160a01b031614610e6e5760405162461bcd60e51b815260040161058a90611d5f565b600081815260046020908152604080832080546001600160a01b03199081169091556001600160a01b0387811680865260038552838620805460001901905590871680865283862080546001019055868652600290945282852080549092168417909155905184937fddf252ad1be2c89b69c2b068fc378daa952ba7f163c4a11628f55a4df523b3ef91a4505050565b600a546001600160a01b031633146109755760405162461bcd60e51b815260206004820181905260248201527f4f776e61626c653a2063616c6c6572206973206e6f7420746865206f776e6572604482015260640161058a565b600a80546001600160a01b038381166001600160a01b0319831681179093556040519116919082907f8be0079c531659141344cd1fd0a4f28419497f9722a3daafe3b4186f6b6457e090600090a35050565b816001600160a01b0316836001600160a01b0316141561100c5760405162461bcd60e51b815260206004820152601960248201527f4552433732313a20617070726f766520746f2063616c6c657200000000000000604482015260640161058a565b6001600160a01b03838116600081815260056020908152604080832094871680845294825291829020805460ff191686151590811790915591519182527f17307eab39ab6107e8899845ad3d59bd9653f200f220920489ca2b5937696c31910160405180910390a3505050565b611084848484610d8d565b61109084848484611488565b6109c35760405162461bcd60e51b815260040161058a90611da4565b6060600d805461046b90611c92565b60606110c682610c42565b60006110d06110ac565b905060008151116110f05760405180602001604052806000815250610b72565b806110fa84611586565b60405160200161110b929190611d30565b6040516020818303038152906040529392505050565b6001600160a01b0382166111775760405162461bcd60e51b815260206004820181905260248201527f4552433732313a206d696e7420746f20746865207a65726f2061646472657373604482015260640161058a565b6000818152600260205260409020546001600160a01b0316156111dc5760405162461bcd60e51b815260206004820152601c60248201527f4552433732313a20746f6b656e20616c7265616479206d696e74656400000000604482015260640161058a565b6111ea600083836001611354565b6000818152600260205260409020546001600160a01b03161561124f5760405162461bcd60e51b815260206004820152601c60248201527f4552433732313a20746f6b656e20616c7265616479206d696e74656400000000604482015260640161058a565b6001600160a01b038216600081815260036020908152604080832080546001019055848352600290915280822080546001600160a01b0319168417905551839291907fddf252ad1be2c89b69c2b068fc378daa952ba7f163c4a11628f55a4df523b3ef908290a45050565b6000828152600260205260409020546001600160a01b03166113355760405162461bcd60e51b815260206004820152602e60248201527f45524337323155524953746f726167653a2055524920736574206f66206e6f6e60448201526d32bc34b9ba32b73a103a37b5b2b760911b606482015260840161058a565b6000828152600c60209081526040909120825161062b9284019061188b565b60018111156113c35760405162461bcd60e51b815260206004820152603560248201527f455243373231456e756d657261626c653a20636f6e7365637574697665207472604482015274185b9cd9995c9cc81b9bdd081cdd5c1c1bdc9d1959605a1b606482015260840161058a565b816001600160a01b03851661141f5761141a81600880546000838152600960205260408120829055600182018355919091527ff3f7a9fe364faab93b216da50a3214154f22a0a2b415b23a84c8169e8b636ee30155565b611442565b836001600160a01b0316856001600160a01b031614611442576114428582611623565b6001600160a01b03841661145e57611459816116c0565b611481565b846001600160a01b0316846001600160a01b03161461148157611481848261176f565b5050505050565b60006001600160a01b0384163b1561157b57604051630a85bd0160e11b81526001600160a01b0385169063150b7a02906114cc903390899088908890600401611df6565b6020604051808303816000875af1925050508015611507575060408051601f3d908101601f1916820190925261150491810190611e33565b60015b611561573d808015611535576040519150601f19603f3d011682016040523d82523d6000602084013e61153a565b606091505b5080516115595760405162461bcd60e51b815260040161058a90611da4565b805181602001fd5b6001600160e01b031916630a85bd0160e11b149050610b39565b506001949350505050565b60606000611593836117b3565b600101905060008167ffffffffffffffff8111156115b3576115b3611a5d565b6040519080825280601f01601f1916602001820160405280156115dd576020820181803683370190505b5090508181016020015b600019016f181899199a1a9b1b9c1cb0b131b232b360811b600a86061a8153600a85049450846116165761161b565b6115e7565b509392505050565b60006001611630846108dd565b61163a9190611e50565b60008381526007602052604090205490915080821461168d576001600160a01b03841660009081526006602090815260408083208584528252808320548484528184208190558352600790915290208190555b5060009182526007602090815260408084208490556001600160a01b039094168352600681528383209183525290812055565b6008546000906116d290600190611e50565b600083815260096020526040812054600880549394509092849081106116fa576116fa611d1a565b90600052602060002001549050806008838154811061171b5761171b611d1a565b600091825260208083209091019290925582815260099091526040808220849055858252812055600880548061175357611753611e75565b6001900381819060005260206000200160009055905550505050565b600061177a836108dd565b6001600160a01b039093166000908152600660209081526040808320868452825280832085905593825260079052919091209190915550565b60008072184f03e93ff9f4daa797ed6e38ed64bf6a1f0160401b83106117f25772184f03e93ff9f4daa797ed6e38ed64bf6a1f0160401b830492506040015b6d04ee2d6d415b85acef8100000000831061181e576d04ee2d6d415b85acef8100000000830492506020015b662386f26fc10000831061183c57662386f26fc10000830492506010015b6305f5e1008310611854576305f5e100830492506008015b612710831061186857612710830492506004015b6064831061187a576064830492506002015b600a83106104565760010192915050565b82805461189790611c92565b90600052602060002090601f0160209004810192826118b957600085556118ff565b82601f106118d257805160ff19168380011785556118ff565b828001600101855582156118ff579182015b828111156118ff5782518255916020019190600101906118e4565b5061190b92915061190f565b5090565b5b8082111561190b5760008155600101611910565b6001600160e01b031981168114610bef57600080fd5b60006020828403121561194c57600080fd5b8135610b7281611924565b60005b8381101561197257818101518382015260200161195a565b838111156109c35750506000910152565b6000815180845261199b816020860160208601611957565b601f01601f19169290920160200192915050565b602081526000610b726020830184611983565b6000602082840312156119d457600080fd5b5035919050565b80356001600160a01b03811681146119f257600080fd5b919050565b60008060408385031215611a0a57600080fd5b611a13836119db565b946020939093013593505050565b600080600060608486031215611a3657600080fd5b611a3f846119db565b9250611a4d602085016119db565b9150604084013590509250925092565b634e487b7160e01b600052604160045260246000fd5b600067ffffffffffffffff80841115611a8e57611a8e611a5d565b604051601f8501601f19908116603f01168101908282118183101715611ab657611ab6611a5d565b81604052809350858152868686011115611acf57600080fd5b858560208301376000602087830101525050509392505050565b600082601f830112611afa57600080fd5b610b7283833560208501611a73565b600060208284031215611b1b57600080fd5b813567ffffffffffffffff811115611b3257600080fd5b610b3984828501611ae9565b600060208284031215611b5057600080fd5b610b72826119db565b60008060408385031215611b6c57600080fd5b611b75836119db565b915060208301358015158114611b8a57600080fd5b809150509250929050565b60008060008060808587031215611bab57600080fd5b611bb4856119db565b9350611bc2602086016119db565b925060408501359150606085013567ffffffffffffffff811115611be557600080fd5b8501601f81018713611bf657600080fd5b611c0587823560208401611a73565b91505092959194509250565b60008060408385031215611c2457600080fd5b611c2d836119db565b9150611c3b602084016119db565b90509250929050565b60008060408385031215611c5757600080fd5b611c60836119db565b9150602083013567ffffffffffffffff811115611c7c57600080fd5b611c8885828601611ae9565b9150509250929050565b600181811c90821680611ca657607f821691505b60208210811415611cc757634e487b7160e01b600052602260045260246000fd5b50919050565b6020808252602d908201527f4552433732313a2063616c6c6572206973206e6f7420746f6b656e206f776e6560408201526c1c881bdc88185c1c1c9bdd9959609a1b606082015260800190565b634e487b7160e01b600052603260045260246000fd5b60008351611d42818460208801611957565b835190830190611d56818360208801611957565b01949350505050565b60208082526025908201527f4552433732313a207472616e736665722066726f6d20696e636f72726563742060408201526437bbb732b960d91b606082015260800190565b60208082526032908201527f4552433732313a207472616e7366657220746f206e6f6e20455243373231526560408201527131b2b4bb32b91034b6b83632b6b2b73a32b960711b606082015260800190565b6001600160a01b0385811682528416602082015260408101839052608060608201819052600090611e2990830184611983565b9695505050505050565b600060208284031215611e4557600080fd5b8151610b7281611924565b600082821015611e7057634e487b7160e01b600052601160045260246000fd5b500390565b634e487b7160e01b600052603160045260246000fdfea2646970667358221220cd0c6071d0af71adaba414a4994062503de843971b894150403c082d355c9bf864736f6c634300080c0033",
  "linkReferences": {},
  "deployedLinkReferences": {}
}